:020000040800F2
:1000000050BF00200D020008A50900089D09000846
:10001000A1090008A1070008890B000800000000E2
:10002000000000000000000000000000AD09000812
:10003000A507000800000000A9090008B109000890
:1000400027020008270200082702000827020008EC
:1000500027020008270200082702000827020008DC
:1000600027020008270200082702000827020008CC
:1000700027020008270200082702000827020008BC
:1000800027020008270200082702000827020008AC
:10009000270200082702000827020008270200089C
:1000A000270200082702000827020008270200088C
:1000B000270200082702000827020008270200087C
:1000C000270200082702000827020008270200086C
:1000D000270200082702000827020008270200085C
:1000E000A9070008270200082702000827020008C5
:1000F000270200082702000827020008270200083C
:10010000270200082702000827020008270200082B
:10011000D50A000827020008270200082702000865
:10012000270200082702000827020008270200080B
:1001300000F002F800F05AF814A696E8000CB24459
:10014000B344DA4501D100F051F8BAE80F000FA628
:1001500096E83000A5EB040504EB0607AAEB0704BC
:10016000A7F101074FEA15154FEA3414A4F1010471
:10017000AC4201D300F03AF813F0010F18BFFB1A9C
:1001800043F0010300F001F8DBE7184724290000E1
:1001900044290000103A24BF78C878C1FAD8520721
:1001A00024BF30C830C144BF04680C6070470000F1
:1001B000704700000023002400250026103A28BFC5
:1001C00078C1FBD8520728BF30C148BF0B607047C9
:1001D000642900F0AD80732900F07182002070471F
:1001E0001FB502F0FDFB1FBD10B510BD00F09DFA5C
:1001F0001146FFF7F5FF00F0E1FE00F0BBFA03B493
:10020000FFF7F2FF03BC00F0C3FA00000948804783
:1002100009480047FEE7FEE7FEE7FEE7FEE7FEE7E8
:10022000FEE7FEE7FEE7FEE704480549054A064B00
:1002300070470000B50900083101000850B70020E0
:1002400050BF002050BB002050BB00200FB41CB595
:10025000074B06AA7B4469460090059800F005FA12
:100260000020694600F014FA1CBC5DF814FB000085
:10027000390400002DE9F0410E46044600202062BA
:100280002046E168884730B3252805D0D4E901210C
:100290009047206A401CF2E7E16820460027884723
:1002A000050018D0A5F14100192802D820354FF4D7
:1002B00000673246294620462760FFF789FF40B194
:1002C000012804D0F61D26F007060836D8E7361DAB
:1002D000D6E72846DAE7206ABDE8F08170B50C461B
:1002E0000546012A05D02878800600D5EA69002352
:1002F00002E0012305E05B1C934202D2E05C00288F
:10030000F9D1A869E618C01AA861286A18442862B9
:100310002846AFF3008004E0D5E9012114F8010B71
:100320009047B442F8D32846AFF3008070BD000078
:100330002DE9F0410646002410687529314616A5BE
:1003400010D0AFF30080002802DA404213A507E086
:1003500031688A0701D512A502E0490704D511A525
:10036000012401E0AFF3008000210A2206F12407F6
:1003700009E0B0FBF2FCB0FBF2F302FB1C003030F2
:1003800078541846491C0028F3D123462A463046A3
:10039000BDE8F04100F00BB9000000002D000000A6
:1003A0002B0000002000000010B5431C02E010F8F4
:1003B000011B71B18107FAD14FF0013202C88C1ACA
:1003C0008C4314EAC211F9D0C01A0A0603D0C01E29
:1003D00010BDC01A10BD0A0401D0801E10BD090254
:1003E000FCD0401E10BD40EA010370B59B072ED122
:1003F0004FF00136042A2AD308C810C99D1B9D431B
:10040000121F15EAC61517D0D8B2E1B2401A50EA49
:10041000056110D198B2A1B2401A50EA05410AD143
:1004200023F07F4024F07F41401A50EA052102D199
:10043000180EA0EB146070BDA342DBD018BA21BA2D
:10044000884201D9012070BD4FF0FF3070BD0AB95C
:10045000002070BD10F8013B11F8014B63B1A342BD
:100460000AD1521E08D010F8013B11F8014B1BB104
:10047000A34201D1521EEDD1181B70BD032A40F2D8
:10048000308010F0030C00F0158011F8013BBCF136
:10049000020F624498BF11F801CB00F8013B38BF4E
:1004A00011F8013BA2F1040298BF00F801CB38BF5C
:1004B00000F8013B11F0030300F00581083AC0F099
:1004C000088051F8043B083A51F804CBA0E8081022
:1004D000F5E7121D5CBF51F8043B40F8043BAFF355
:1004E0000080D20724BF11F8013B11F801CB48BFAF
:1004F00011F8012B24BF00F8013B00F801CB48BFE5
:1005000000F8012B704702F0FF0343EA032242EA9E
:10051000024200F024B84FF000020429C0F012801B
:1005200010F0030C00F01B80CCF1040CBCF1020FA6
:1005300018BF00F8012BA8BF20F8022BA1EB0C017B
:1005400000F00DB85FEAC17C24BF00F8012B00F871
:10055000012B48BF00F8012B70474FF0000200B597
:10056000134694469646203922BFA0E80C50A0E8D6
:100570000C50B1F12001BFF4F7AF090728BFA0E884
:100580000C5048BF0CC05DF804EB890028BF40F850
:10059000042B08BF704748BF20F8022B11F0804F92
:1005A00018BF00F8012B70477047704770472DE95E
:1005B000F0470D4699469246044600F1240801682A
:1005C000880604D5E06921F01001216000E00120D7
:1005D000A84201DD471B00E00027A1697A1902EB60
:1005E0000900081AA0612078C00602D42046AFF3A3
:1005F0000080002608E0D4E901211AF8060090479F
:10060000206A401C761C20624E45F4DB2078C00630
:100610000AD52046AFF3008006E0D4E9012130205E
:100620009047206A401C2062381EA7F10107F4DCC5
:1006300007E0D4E9012118F805009047206A401C22
:100640002062281EA5F10105F3DC2046AFF30080EF
:100650002078000602D50220BDE8F0870120FBE7E4
:1006600001694A1C02610878704700B58FB0CDE976
:1006700001310021059105497944CDE90310114666
:100680006846FFF7F7FD0FB000BD0000E5FFFFFF74
:100690000A6802F8010B0A60704710B5436913B18C
:1006A000AFF3008001E0FFF719FE012010BD1278C2
:1006B00000F124010A7000224A700122EDE711685E
:1006C0004FF0FF32E9E710B5203AC0F00B80B1E8F7
:1006D0001850A0E81850B1E81850A0E81850203A77
:1006E000BFF4F5AF5FEA027C24BFB1E81850A0E880
:1006F000185044BF18C918C0BDE810405FEA827C9A
:1007000024BF51F8043B40F8043B08BF7047D207B0
:1007100028BF31F8023B48BF11F8012B28BF20F851
:10072000023B48BF00F8012B7047754600F02CF8DB
:10073000AE4605006946534620F00700854618B0CE
:1007400020B5FFF771FDBDE820404FF000064FF0E7
:1007500000074FF000084FF0000BAC46ACE8C009B2
:10076000ACE8C009ACE8C009ACE8C00921F0070159
:100770008D46704710B50446AFF300802046BDE8B3
:100780001040FFF73CBD00000048704710000020FB
:1007900001491820ABBEFEE72600020070470000AA
:1007A000FEE70000704700002DE9F0439BB044F6DF
:1007B00000494FF40040C4F2000900F05BFB40F236
:1007C00009080128C2F2000841D140F20400C2F237
:1007D000000040F20806076840F27400C2F200060A
:1007E000C2F20000327898F80030046842F6FA113C
:1007F00002ADC0F600012846CDE90074FFF726FDE2
:100800004846294601F064F809F53C4528464FF46E
:10081000004100F0CDFB0028F8D03078411C0428BE
:10082000317000F29B80DFE800F0070309840500C7
:10083000012004E001203070002000E002204FF48D
:10084000FA7100F0A3F94FF4004000F00DFB4FF4F3
:10085000805000F00FFB012840F08B8046A0002163
:100860003C2200F0C9FB40F27C05C2F2000547A023
:10087000294600F00FFB297881B10646002446A7DF
:100880004846314601F024F84846394601F020F840
:1008900028780134844206F1C806F1D309F54444AE
:1008A00020464FF4805100F083FB0028F8D098F8E0
:1008B0000000411C042888F8001053D8DFE800F03D
:1008C0001703283D1400012000F01CFA4FF4FA70C1
:1008D00000F0B4FA012000F0EFF940F20400C2F297
:1008E00000001E21016040E0012088F80000002087
:1008F00000F008FA4FF4FA7000F0A0FA002000F0BF
:10090000DBF940F20400C2F200000F2101602CE08C
:10091000022000F0F7F94FF4FA7000F08FFA02208D
:1009200000F0CAF940F20400C2F200003C2101606C
:100930001BE0C82000F00CFA85E7032000F0E2F984
:100940004FF4FA7000F07AFA032000F0B5F940F2A3
:100950000400C2F200007821016006E0032000F0EC
:10096000ABF970E7032000F0A7F94FF4805000F0D6
:100970007BFA1BB0BDE8F08339312E3132312E398C
:10098000332E39343A313838330000006C697879C5
:10099000746F7069630000000D0A0000FEE700003C
:1009A000FEE700007047000070470000704700003D
:1009B00000F04EBA4EF68851CEF200010A6841F2BC
:1009C000040042F47002C4F202000A6050F8041CF1
:1009D0004FF0000C41F0010140F8041CC0F800C0C9
:1009E000C0F828C050F8042C4FF6FF73CFF6F6631A
:1009F0001A4040F8042C4FF41F02426050F8042CB7
:100A000022F4802240F8042C50F8042C42F4803266
:100A100040F8042C40F2FF7250F8041C013A4CF1EB
:100A20000003890301D4002BF6D150F8041C89037C
:100A300001D400BFFEE7826947F2000142F0805214
:100A4000C4F2000182610A684FF6FF7342F440422B
:100A50000A600268CBF2C373026002680260026837
:100A600042F480620260026822F44032026002684E
:100A700042F44032026002681A400260026842F0AA
:100A8000006242F45012026050F8042C42F080726E
:100A900040F8042C50F8042C9201FBD50A6842F46B
:100AA00080320A604A68D203FCD50A6842F40032F8
:100AB0000A6000BF4A689203FCD5016821F0030177
:100AC0000160016841F00201016000BF016809078F
:100AD000FCD570472DE9F04381B044F6004940F25F
:100AE0000538C4F20009C0F205084846414600F046
:100AF000DDFE01283FD1484600F0BCFE40F25821FF
:100B0000C2F200010B785A1CD5B20A7040F2592289
:100B1000C2F20002642DD05404BF0020087008788F
:100B2000831813F8013C0D2B18D10A2340F2C0257D
:100B300013540023C2F20005DEB20133975DDCB22C
:100B40008442AF55F8D90023002500BFEFB201352C
:100B5000EEB28642D355F9D90020087040F27002F7
:100B6000C2F20002012348464146137001B0BDE8BD
:100B7000F04300F08FBE40F27000C2F2000000218E
:100B8000017001B0BDE8F083FEE70000F0B581B070
:100B900041F20005C4F201050C46074628464FF411
:100BA000407100F0B1F9A5F5006630464FF4807150
:100BB00000F0AAF9022F07D02846012F08D027B14C
:100BC0004FF4407100F09EF930464FF4807101E01F
:100BD0004FF4007100F096F9204600F02FF9022F33
:100BE00007D02846012F08D027B14FF4407100F0FC
:100BF0008BF930464FF4807101E04FF4007100F042
:100C000083F9204600F01AF9022F07D02846012F59
:100C100008D027B14FF4407100F074F930464FF41A
:100C2000807101E04FF4007100F06CF9204600F093
:100C300005F9022F07D02846012F08D027B14FF41D
:100C4000407100F061F930464FF4807101E04FF4DB
:100C5000007100F059F9204601B0BDE8F04000F005
:100C6000EDB8000010B540F2026000F0CDFD40F696
:100C70000004C4F201042046102103224FF48073C3
:100C800000F044F920464FF4807100F03DF940F245
:100C9000046000F0B9FD04F5006420461021032231
:100CA0004FF4407300F032F920464FF44071BDE834
:100CB000104000F029B900000146022841F200006E
:100CC000C4F201000AD0012904D069B94FF480713F
:100CD00000F01AB94FF4007100F016B9A0F50060E9
:100CE0004FF4807100F010B910B54FF44071044614
:100CF00000F00AF9A4F500604FF48071BDE81040DF
:100D000000F002B90146022841F20000C4F20100DD
:100D10000AD0012904D069B94FF4807100F0F2B80B
:100D20004FF4007100F0EEB8A0F500604FF4807150
:100D300000F0E8B810B54FF44071044600F0E2F856
:100D4000A4F500604FF48071BDE8104000F0DAB8FF
:100D500070B541F20004C4F20104054620464FF488
:100D6000807100F0CFF8284600F068F820464FF474
:100D7000407100F0C9F8A4F5006630464FF4807168
:100D800000F0C2F820464FF4007100F0BBF828468E
:100D900000F054F820464FF4407100F0B5F83046AA
:100DA0004FF4807100F0B0F830464FF4807100F0DD
:100DB000A9F8284600F042F820464FF4407100F0B0
:100DC000A3F830464FF4807100F09EF820464FF4AF
:100DD000807100F097F8284600F030F820464FF474
:100DE000407100F091F830464FF4807100F08CF8BB
:100DF00020464FF4007100F085F8284600F01EF8F8
:100E000020464FF4407100F07FF830464FF4807177
:100E100000F07AF830464FF4807100F073F82846FD
:100E200000F00CF820464FF4407100F06DF83046A9
:100E30004FF48071BDE8704000F066B840F2780170
:100E4000C2F20001086000BF08680028FCD17047AA
:100E500040F27800C2F200000168002908BF704724
:100E6000016801390160704740F21441C4F2010188
:100E70000860704740F20041C4F201014A69096804
:100E8000024000EA010018BF0122002818BF01201B
:100E900010407047F0B581B040F224350646C2F2EA
:100EA00000050C46284631463222FFF79CFAB8B1BD
:100EB00040F224354FF0FF37C2F20005082F16D05C
:100EC00005F6D875284631463222FFF78CFA0028FD
:100ED00007F10107F2D10021082F88BF012100E0AE
:100EE0000021D5F8D40F207005F1320004E0781C01
:100EF0000021082888BF012100291CBF0020207084
:100F000001B0F0BD41617047016170472DE9F041CA
:100F1000CF0601F00F0C09D5042A05D1C26B4CF0A5
:100F2000030C1A43C26301E04CEA020C00F1100EFC
:100F300000F1140800240F2500260DE0136005FAC7
:100F400004F227EA02020CFA04F73A43026001367F
:100F5000082E04F104040BD023FA06F2D207F6D0CF
:100F6000076828294246E9D04829E8D17246E5E7D2
:100F7000082400250F260FE0136006FA05F227EA81
:100F800002020CFA05F73A4342600134102C05F1D5
:100F9000040508BFBDE8F08123FA04F2D207F4D0BB
:100FA000476828294246E7D04829E6D17246E3E758
:100FB0008068084018BF01207047000082B000F030
:100FC00033FCFFF74FFE41F655104FF0000C4FF089
:100FD000010EC0F6000005A180220023CDE900EC3F
:100FE00001F048F900F050FEFEE700BF4C454420F8
:100FF0005441534B00000000F0B59BB00B4642F645
:10100000902102AC15460246C0F60001204600952C
:10101000FFF71CF99DF80800B8B144F60045002719
:10102000C4F20005002600BFE15D284600F026FC62
:101030002846072100F026FC0028F9D0013620467A
:10104000F7B2FFF7B1F9B842EED81BB0F0BD00001F
:101050002DE9F04F81B00E464BF23871C2F200011B
:10106000D1E900BA40F2D411C2F20001D1F80080F7
:1010700040F2D81140F2CC15C2F20001C2F20005D4
:10108000D1F800902968044601F10800174600F0E5
:101090003BFC04EA0600013019D1C7B14BF20870DD
:1010A000C2F20000D0E900122B6801311A61D36846
:1010B0002F687B612B68D7680833BB602B680833C7
:1010C000D3602A680160D06101B0BDE8F08F14EBF5
:1010D0000B04296856EB0A06C1E902464FF00000EE
:1010E000296840F10000012801F1080105D14846B6
:1010F00001B0BDE8F04F00F047BC404600F044FCB2
:101100004BF2D060C2F20000D0E90012611A76EB17
:10111000020138BFC0E9004601B0BDE8F08F000011
:101120002DE9F047044600F04FFC4BF29410C2F258
:101130000000016840F2CC1701310160C2F20007E3
:1011400039684BF2007A40F2E016C2F2000AC2F2AD
:10115000000651B1DAF8000000283DD13868A16BD3
:10116000806B884298BF3C6036E03C600068012894
:1011700032D10025701900F0F7FB1835782DF9D120
:101180004BF29868C2F20008404600F0EDFB4BF2CB
:10119000B069C2F20009484600F0E6FB4BF2E86095
:1011A000C2F2000000F0E0FB4BF22070C2F200003F
:1011B00000F0DAFB4BF20870C2F2000000F0D4FB42
:1011C00040F2D410C2F20000C0F8008040F2D81003
:1011D000C2F20000C0F800904BF2A010C2F2000072
:1011E000016804F10805013101604BF2A411C2F25B
:1011F0000001A06B0A68904288BF086000EB4000C5
:1012000006EBC0014A68E161D36822616361D3687B
:10121000D56056F830209D60511C46F8301000F023
:10122000F7FBDAF8000088B13868A16B806B884260
:1012300028BFBDE8F0874EF60450CEF200004FF014
:1012400080510160BFF34F8FBFF36F8FBDE8F08710
:10125000F0B581B04BF29815C2F20005286848B38A
:101260004BF220764BF29417C2F20006C2F200074E
:1012700005E000BF204600F0E3FB2868D0B100F095
:10128000A3FB3069046904F1080000F03DFB3868F5
:101290000138386028680138286000F0B9FB94F8FC
:1012A0005D000228E9D00128E4D028B9E06B00F005
:1012B000C7FBDFE701B0F0BD4FF0000080F31188FD
:1012C000BFF36F8FBFF34F8FFEE7000040F2E014D3
:1012D0004EF60455C2F20004CEF200054FF08056DF
:1012E000FFF7B6FF20680228FAD32E60BFF34F8FB6
:1012F000BFF36F8FF4E700002DE9F04F81B09946FE
:1013000040F2D013C2F200031B6893461A690746E5
:1013100014698A4604F10808404600F0F5FA94F88A
:101320003000410711D400F0FA0084F830002FE0BB
:10133000BBEB070269EB0A03511A73EB00001FD3E2
:10134000E16A204688472F46B246D4E90810A461D6
:10135000CD1940EB0A06BBEB050279EB0602C4E9A6
:101360000256E5D2BBEB070079EB0A0003D2E81B7B
:1013700076EB0A00E4D240F2D010C2F2000003E0A3
:1013800040F2DC10C2F200000068414600F0FCFAB6
:10139000E16A204601B0BDE8F04F084781B0002067
:1013A000009040F20C00C2F2000000684FF0000113
:1013B00081F31188BFF36F8FBFF34F8F013001D0DE
:1013C000FEE700BF00980028FCD001B07047000085
:1013D00088B040F2D01B40F2C01440F2DC1AC2F2D6
:1013E000000BC2F20004C2F2000A00BFDBF80000EA
:1013F000D0F80080B8F1000F04D00069D0E9009760
:1014000003E000BF4FF00009002700F097FC01F057
:101410003FF80546D4E900020E46281A71EB020097
:1014200022D2DBF800004BF240770168C2F20007DD
:1014300071B100BF00694FF0FF32D0E900014FF0F9
:10144000FF33FFF759FFDBF8000001680029F1D1F5
:10145000DAF80010CAF80000CBF80010C4E9005612
:1014600001F088F942E000BFB8F1000FC4E900566E
:1014700012D0B5EB090076EB07000DD301F07AF935
:10148000484639462A463346FFF736FF4BF2407747
:10149000C2F200072AE000BFB8F1000F02D04FF0FF
:1014A000000C06E0DAF800000068B0FA80F04FEABD
:1014B000501C4BF24071C2F200010868B9EB050202
:1014C00067EB06030F46CDF800C000F0DBFA01F031
:1014D00051F958B94EF60450CEF200004FF0805149
:1014E0000160BFF34F8FBFF36F8F00BF00213868DB
:1014F0000791CDE90511CDE90311029102AE0EE08D
:10150000DBF8000000F040FA40F2C014C2F2000420
:10151000BA464BF24077C2F2000702AE3868314655
:101520000022002300F070FD00283FF45FAF029816
:101530000028F3D4069DE86918B105F1080000F011
:10154000E3F900F0A5FF8046D4E900028946B8EB34
:10155000000071EB020013D2DBF80000016849B112
:1015600000694FF0FF32D0E900014FF0FF33FFF781
:10157000C3FEF1E7DAF80010CAF80000CBF800105B
:101580000298C4E9008901380828C7D8DFE800F0CC
:101590000505604096050560400095F830C0574647
:1015A000049ED5E908AE4CF00100059C85F830009A
:1015B0001AEB06004EEB04022946B8EB000341F893
:1015C000080F79EB0203EA60AD610AD2B8EB0603BB
:1015D00079EB0403BFF494AF801B72EB04000ED2CE
:1015E0008EE7B8EB060069EB0402B0EB0A0072EB81
:1015F0000E0004D23868BA4600F0C6F973E05FEA1C
:101600004C702CD40CF0FA00BA4685F8300067E034
:1016100095F8300040F00102DDE9040185F8302042
:1016200050EA0102C5E9080162D010EB080041EB65
:101630000902294641F8080FB8EB000079EB0200D7
:10164000EA60AD6142D2DBF8000000F09DF965E789
:1016500095F8300000F0FE0085F830005EE701915B
:10166000DDE9040110EB0A0041EB0E01BA460CE083
:10167000B8EB000069EB0101C01A71EB02002AD33C
:10168000E96A2846884720463146D5E90832AD61E7
:101690001C1842EB0106B8EB040779EB0607C5E915
:1016A0000246E5D2B8EB000279EB010203D2201A20
:1016B00076EB0100E4D2DBF800000EE095F8300094
:1016C0008107C7D4284600F0BBF927E7DAF8000005
:1016D00000F05AF922E7DAF80000019900F054F915
:1016E000E96A2846884740F2C014C2F2000410E7B5
:1016F0004FF0000080F31188BFF36F8FBFF34F8F5F
:10170000FEE70000F0B581B0044600F05DF994F901
:101710004D60012E0FDB04F1280500BF286850B191
:10172000284600F0B3FF002818BF00F051FA70B24D
:10173000013E0128F2DCFF2684F84D6000F068F9D4
:1017400000F042F994F94C70012F0EDB04F1100502
:10175000286850B1284600F099FF002818BF00F013
:1017600037FA78B2013F0128F2DC84F84C6001B00E
:10177000BDE8F04000F04CB910B520F0070101F1D0
:101780000804844298BF0024410708BF044600F0C3
:10179000D5FA40F2C810C2F20000016891B1DCB184
:1017A0004BF2CC61C2F200010B681A1940F6F774D3
:1017B000A2424FF0000410D89A420ED900680A6085
:1017C000C4180AE04AF29411C2F20001073121F074
:1017D00007010160002CE3D1002400F0CBFF20467C
:1017E00010BD0000034641F29D3021F00101C0F61A
:1017F00000004FF0807C03E903106FF00201A3F1B9
:10180000440043E90912704741F2000300F01F0150
:101810008009C4F202034FF0010CC2580CFA01F126
:101820001143C1507047000040F20000C2F20000B6
:10183000006844F6D351C1F26201A0FB01014FF0F0
:10184000FF3000EB9110B0F1807F11D24EF2100109
:10185000CEF2000148604EF62350CEF20000F02296
:101860000270002207238A600B600270704700BF7D
:10187000FEE7000040686FF35F2070476FF35F2161
:10188000416070478A09105801F01F01C84000F0FC
:1018900001007047C1F30442890D4FF0010C0B5851
:1018A0000CFA02F223EA02020A507047C1F38912CD
:1018B00052F800C08A0D105801F01F03C1F3044113
:1018C000C8402CFA03F1084000F001007047000006
:1018D000F0B581B00C46097899B10546002700267D
:1018E000E15D2846FFF7CAFF28460721FFF7CAFF38
:1018F0000028F9D001362046F7B2FEF755FDB84270
:10190000EED801B0F0BD0000D0E902324169DA60E2
:10191000D1F804C0C2688445936008BF4A600B6870
:1019200000224261581E0860704700004BF20863B5
:10193000C2F2000303604BF20840C2F200000860EC
:1019400080201060704700000320C821FFF71EF9B7
:10195000FEE700004FF4FA70FFF7FAF93220002199
:1019600000F0B8F8F6E700004FF0FF31024642F809
:10197000081FC0E9031200214261C0E9001270474C
:101980000021416170470000B0B5D1E900CE0CEAFA
:101990000E0201320CD000F1080200BF134692681B
:1019A000D2E90045BCEB04047EEB0504F6D200E06E
:1019B00043699A6848618A60D1600268CB60996027
:1019C000511C0160B0BD00004FF0000080F3118891
:1019D000BFF36F8FBFF34F8F40F20C00C2F20000D5
:1019E00001684A1C026001B170474EF60450CEF205
:1019F00000000068000608BF70474FF0000080F349
:101A00001188BFF36F8FBFF34F8F00BFFEE7000059
:101A100040F20C00C2F20000016839B101390160E6
:101A200018BF7047002080F3118870474FF0000006
:101A300080F31188BFF36F8FBFF34F8FFEE7000075
:101A4000002808BF70474FF0000080F31188BFF3F3
:101A50006F8FBFF34F8F00BFFEE700000000000054
:101A6000074B19680868B0E8F04F80F30988BFF3A6
:101A70006F8F4FF0000080F31188704700BF00BFE8
:101A8000CC010020F0B581B0069F1D4616460446E5
:101A9000FFF79AFF94F84C00FF2804BF002084F859
:101AA0004C0094F84D00FF2804BF002084F84D003E
:101AB000FFF7AEFF206C30B904F1280032462B4608
:101AC000009700F0ABF8204601B0BDE8F040FFF70A
:101AD00019BE00002DE9F04750EA01025AD04BF23E
:101AE0009C12C2F200021368013313601268012ACB
:101AF00031D14BF23872C2F20002D2E9006740F2F3
:101B0000D412C2F20002D2F8008040F2D81240F2A1
:101B1000CC1AC2F20002C2F2000AD2F80090DAF83F
:101B200000200546083210460C46FFF7EDFE7619F8
:101B3000DAF800106741C1E902674FF00000DAF8F7
:101B4000001040F10000012801F108010DD14846C4
:101B5000FFF71AFF18E04FF0000080F31188BFF381
:101B60006F8FBFF34F8F00BFFEE74046FFF70CFFBC
:101B70004BF2D060C2F20000D0E90012711A77EB8C
:101B8000020138BFC0E9006700F0F4FD002818BF6B
:101B9000BDE8F0874EF60450CEF200004FF08051C1
:101BA0000160BFF34F8FBFF36F8FBDE8F087000078
:101BB0004BF2D861C2F20001096801604BF2387142
:101BC000C2F20001D1E90012C0E902127047000020
:101BD0004BF24870C2F20000012101607047000022
:101BE00088B1B0B540F2CC11C2F2000109681C46C0
:101BF00020311546FFF7C8FE284621460122BDE8E0
:101C0000B040FFF725BA4FF0000080F31188BFF312
:101C10006F8FBFF34F8F00BFFEE7000050B370B56A
:101C200040F2CC14C2F20004DDF810C0D0E900E1AB
:101C30002568BCF1000FA962CD682668F5622568A9
:101C4000CE6805F12005B56025680EF1010605F1A5
:101C50002005CD602168054648634FF0FF311CBF69
:101C60000A460B461046194662462E60BDE8704093
:101C7000FFF7EEB94FF0000080F31188BFF36F8FCC
:101C8000BFF34F8FFEE7000010B588B044F2494122
:101C9000C4F24C5104914BF2A8110020C2F2000191
:101CA0008DF814004BF2A834CDE9000141F2CD20AB
:101CB000C2F20004C0F6000004A9802200230294AE
:101CC00000F04AFB4BF2C860C2F20000046000F072
:101CD00023FE411C27D001281ED14FF0000080F3C5
:101CE0001188BFF36F8FBFF34F8F4BF2D060C2F2FA
:101CF00000004FF0FF31C0E900114BF20070C2F25A
:101D00000000012101604BF23870C2F20000002196
:101D1000C0E9001100F0AEF842F6AC20C0F60000B9
:101D2000006808B010BD4FF0000080F31188BFF3C9
:101D30006F8FBFF34F8F00BFFEE700004BF29C1088
:101D4000C2F20000016801310160704710B54BF22A
:101D50009C10C2F20000006830B14BF24870C2F231
:101D600000000121016010BD4BF24870C2F200007A
:101D7000002140F2CC140160C2F200042068C06B64
:101D80000168B1F1A53F0BD14168B1F1A53F07D181
:101D90008168B1F1A53F03D1C068B0F1A53F04D07F
:101DA000216820684031FFF7CFFD4BF2A41CC2F23E
:101DB000000CDCF8001040F2E01301EB4102C2F22B
:101DC000000353F8320003EBC202A0B1506802F1E5
:101DD000080380689842506001D1106950605068D3
:101DE00000692060CCF80010206810BD52F8180D72
:101DF00001390028EAD10029F8D14FF0000080F322
:101E00001188BFF36F8FBFF34F8F00BFFEE7000055
:101E1000EFF30980BFF36F8F154B1A681EF0100F98
:101E200008BF20ED108A20E9F04F10602DE909006D
:101E30004FF0000080F31188BFF34F8FBFF36F8F17
:101E4000FFF784FF4FF0000080F31188BDE8090020
:101E500019680868B0E8F04F1EF0100F08BFB0EC2A
:101E6000108A80F30988BFF36F8F704700BF00BFEF
:101E7000CC0100204EF20040CEF200004CF2702166
:101E8000C4F20F11D0F800294B1C9A4209D14FF02F
:101E9000000080F31188BFF36F8FBFF34F8F00BF37
:101EA000FEE7D0F800298A4209D14FF0000080F304
:101EB0001188BFF36F8FBFF34F8F00BFFEE74EF661
:101EC0000851CEF20001096841F66123CA6AC0F6E2
:101ED00000039A4209D04FF0000080F31188BFF34D
:101EE0006F8FBFF34F8F00BFFEE7896B41F6116222
:101EF000C0F60002914208D04FF0000080F3118834
:101F0000BFF36F8FBFF34F8FFEE783B000210191C6
:101F100001788DF80B10FF21017000788DF8030017
:101F20009DF803004FF0000080F31188BFF36F8F1E
:101F3000BFF34F8F03B000BFFEE7000010B582B0C3
:101F40006BB118B101B90AB999B192B94FF000005B
:101F500080F31188BFF36F8FBFF34F8FFEE74FF011
:101F6000000080F31188BFF36F8FBFF34F8F00BF66
:101F7000FEE750240194019C502C18D1A0FB014C89
:101F8000019C0124002983F84E4008BF1A46BCF189
:101F9000000F1A60C3E9110113D04FF0000080F365
:101FA0001188BFF36F8FBFF34F8F00BFFEE74FF075
:101FB000000080F31188BFF36F8FBFF34F8F00BF16
:101FC000FEE71C46FFF700FD2068D4E9111200234C
:101FD00002FB010C013901FB02012364C4E9010C7D
:101FE000FF20E16084F84C0084F84D0004F11000FB
:101FF000FFF7BAFC04F12800FFF7B6FCFFF708FD75
:10200000204602B010BD00002DE9F04F89B00793C3
:102010000692A0B10C460546002900F0BB8000F0F6
:1020200023FAB0B9DDE90601084312D04FF00000F1
:1020300080F31188BFF36F8FBFF34F8FFEE74FF030
:10204000000080F31188BFF36F8FBFF34F8F00BF85
:10205000FEE705F11000019005F1280000900DF158
:1020600008090DF1180A4FF000080CE02846FFF7A8
:1020700049FB00F07FFBFFF7A7FC2F6CFFF7C8FCC4
:10208000002F00F09480FFF79FFCD5F840B0BBF123
:10209000000F27D0AA6C5AB1D5E902011144E960BA
:1020A000814224BF2868E860E9682046FEF7E6F927
:1020B000ABF101002864286970B1019800F0E6FADC
:1020C00050B14EF60450CEF200004FF08051016046
:1020D000BFF34F8FBFF36F8FFFF79AFC00200126ED
:1020E000B0B965E0DDE9060108430AD0B8F1000F98
:1020F00002D14846FFF75CFD4FF00108012038B9D6
:1021000056E0FFF785FC00260020002850D000BFD5
:10211000FFF77EFCFFF712FEFFF756FC95F84C0028
:10212000FF2804BF002085F84C0095F84D00FF28DB
:1021300004BF002085F84D00FFF76AFC4846514671
:1021400000F03AF800287FF491AFFFF73DFC2F6CC8
:10215000FFF75EFC2FB12846FFF7D4FA00F00AFB28
:1021600091E7DDE906230098FFF73AFD2846FFF7DF
:10217000C9FA00F0FFFA00287FF485AF4EF604504C
:10218000CEF200004FF080510160BFF34F8FBFF3DC
:102190006F8F78E7A86C00283FF441AF4FF0000044
:1021A00080F31188BFF36F8FBFF34F8FFEE70026D8
:1021B000304609B0BDE8F08F2DE9F04F81B0C0B3D3
:1021C0000C4600293FD00546FFF7FEFB4BF2387C5A
:1021D000C2F2000CDCE90016D5E90207D4E9003AA6
:1021E000B1EB000803EA0A0266EB0709013239D0B5
:1021F0004BF2D86EC2F2000EDEF800B02A689345AA
:1022000003D0081A76EB070027D2B8EB030079EB6E
:102210000A0022D2B3EB08006AEB0901C4E900010D
:10222000DEF8000000242860DCE90001C5E90201B5
:1022300019E04FF0000080F31188BFF36F8FBFF3F8
:102240004F8F00BFFEE74FF0000080F31188BFF30F
:102250006F8FBFF34F8F00BFFEE70020C4E900007F
:10226000012400E00024FFF7D3FB204601B0BDE8C5
:10227000F08F00002DE9F0479500814628469846EA
:1022800092460C46FFF778FA70B107466020FFF7D8
:1022900073FA30B160210646FEF73DF9F76336B9AF
:1022A00055E03846FFF7CCFB0026002E4FD000212A
:1022B000F06B089F86F85D102946A522FEF723F9EA
:1022C000F06B74B106F14001002200BFA35C8B5497
:1022D000A35C1BB10F2A02F10102F7D1002186F89D
:1022E0004F10052F09D34FF0000080F31188BFF382
:1022F0006F8FBFF34F8F00BFFEE700EB8A000438FB
:1023000020F00704099D06F10800B7633765FFF761
:1023100037FB06F12000FFF733FBD7F105004FF044
:10232000000161F10001C6E9080120464946424624
:10233000B6613663FFF756FA002D306018BF2E6085
:102340002EB13046FEF7ECFE0120BDE8F0874FF0DD
:10235000FF30BDE8F08700002DE9F04F81B00B9F02
:10236000002F3AD00C9C002C41D060260096009E95
:10237000602E46D181460098DDF828A020460D4603
:10238000602198461646FEF7C6F8022084F85D00E4
:10239000B1003846A522E763B346FEF7B4F8E06B18
:1023A0007DB1294604F14002002300BFCF5CD75421
:1023B000CF5C1FB10F2B03F10103F7D1002184F88B
:1023C0004F10BAF1050F26D34FF0000080F31188AB
:1023D000BFF36F8FBFF34F8FFEE74FF0000080F326
:1023E0001188BFF36F8FBFF34F8F00BFFEE74FF031
:1023F000000080F31188BFF36F8FBFF34F8F00BFD2
:10240000FEE74FF0000080F31188BFF36F8FBFF33A
:102410004F8F00BFFEE700EB8B00043820F007076A
:1024200004F10800C4F838A0C4F850A0FFF7A8FAD7
:1024300004F12000FFF7A4FADAF105004FF00001E3
:1024400061F10001C4E90801384649464246A461E9
:102450002463FFF7C7F920602046FEF761FE20469F
:1024600001B0BDE8F08F00004BF20070C2F2000036
:102470000068002804BF012070474BF29C10C2F294
:1024800000000068B0FA80F040094000704700008A
:10249000B0B5FFF799FA4BF23870C2F20000D0E9FC
:1024A0000045FFF7B5FA20462946B0BD2DE9F04FAB
:1024B0004BF29C10C2F20000006868B14BF2E06081
:1024C000C2F20000D0E90012013142F10002C0E97D
:1024D00000120020BDE8F08F4BF23870C2F200000D
:1024E000D0E90012002311F1010E52F1000843F16E
:1024F0000003012BC0E900E830D140F2D410C2F251
:10250000000003681B6843B14FF0000080F311889E
:10251000BFF36F8FBFF34F8FFEE740F2D817C2F2C1
:10252000000703683E6806603B604BF2D863C2F266
:1025300000031F6801371F6003681B6823B1006830
:102540000069D0E9000303E04FF0FF304FF0FF33A4
:102550004BF2D067C2F20007C7E900034BF2D0612B
:10256000C2F20001D1E90003BEEB000078EB0300EA
:1025700001D2002080E040F2D41BC2F2000BDBF855
:1025800000004FF0FF3400684FF0000A002860D0D0
:1025900040F2E019C2F2000900202AE04BF2A41137
:1025A000C2F20001BC6B09688C4282BF4BF2A411DD
:1025B000C2F200010C6004EB440109EBC102536854
:1025C000FA61DE683B617E61DE68DD6059F83130BA
:1025D000B5605A1C49F8312040F2CC11C2F200011A
:1025E0000968896BDBF800208C4288BF01201168E4
:1025F000C1B3DBF800301B691F693D4655F8084F31
:10260000FB68BEEB040C78EB030126D3D7E9041476
:10261000FB69CC605A687C69AA42A16008BF5C6013
:1026200019687C6B0139002CC7F81CA01960B5D063
:10263000D7E90A1207F12006CA606268FB6AB24253
:10264000996008BF63602168C7F834A00139216030
:10265000A4E74FF0FF3300200CE04BF2D061C2F250
:10266000000107E04BF2D0614FF0FF33C2F20001EE
:102670004FF0FF34C1E900434BF24871C2F2000150
:102680000968002918BF0120BDE8F08F00690069C2
:1026900010B380B5D0E90A13426BCB60D2F804E0E6
:1026A000C36A00F1200CE645996008BF53601368C7
:1026B00000214163591E11604BF29C11C2F20001CE
:1026C000096891B14BF2E862C2F2000251684263BC
:1026D000CB688162C36230E04FF0000080F3118864
:1026E000BFF36F8FBFF34F8FFEE7D0E90413C269CA
:1026F000CB60D2F804E0436900F1080CE64599602C
:1027000008BF536013680021C161591E4BF2A41326
:102710001160C2F20003826B19688A4288BF1A6096
:1027200002EB420140F2E012C2F2000202EBC102EF
:102730005168C261CB6801614361CB68C1F80CC0CC
:10274000C3F808C01168806B0131116040F2CC11F0
:10275000C2F200010968896B8842BDE8804091BFE0
:1027600000204BF24871C2F20001012088BF0860CE
:10277000704700002DE9F04F81B0FFF725F94BF2CB
:102780009C10C2F20000016859B101680139016072
:10279000006880B10024FFF73BF9204601B0BDE896
:1027A000F08F4FF0000080F31188BFF36F8FBFF3FD
:1027B0004F8F00BFFEE74BF29410C2F2000000689A
:1027C0000028E7D04BF2E868C2F20008D8F8001001
:1027D0004BF2487A40F2CC190029C2F2000AC2F248
:1027E00000096AD04BF2A41E40F2E0134FF0000B38
:1027F000C2F2000EC2F200034FF0010CD8F81070C4
:102800003C69D4E90A26676BD6607868E66A04F109
:102810002005A842B26008BF7E603868C4F834B0B2
:1028200001383860D4E90402E769C2607A686569F2
:1028300004F10806B242A86008BF7D603868C4F899
:102840001CB001383860A76BDEF80000874207EB48
:10285000470088BFCEF8007003EBC0025568E26104
:10286000E96825616161E968EE608E6053F83010B7
:10287000013143F83010D9F80000806B874288BFDF
:10288000CAF800C0D8F800000028B7D1ACB140F2B7
:10289000D410C2F200000168096821B10068006923
:1028A000D0E9000103E04FF0FF304FF0FF314BF271
:1028B000D062C2F20002C2E900014BF2E068C2F24B
:1028C0000008D8E9006456EA040010D0012700BFD0
:1028D000FFF7ECFD002818BFCAF80070013E64F154
:1028E000000456EA0400F3D10020C8E90000DAF839
:1028F000000000283FF44EAFD9F800004EF6045017
:10290000CEF200004FF080510160BFF34F8F0124E1
:10291000BFF36F8F3FE7000070B586B0FFF754F844
:102920004BF24076C2F20006306830BB4BF268646E
:10293000C2F200042046FFF717F84BF28065C2F29E
:1029400000052846FFF710F840F2D010C2F2000050
:10295000046040F2DC10C2F2000040F27D0240F25E
:10296000701305600025C2F20002C2F200030A20C3
:1029700018210095FFF7E2FA3060FFF749F8306858
:10298000F8B10020CDE9040005A804A903AAFEF7C8
:10299000CDFFDDE903200421059ECDE9001041F2C1
:1029A000D130C0F600000CA100230296FFF7D4FC42
:1029B0004BF24471C2F20001086010B1012006B070
:1029C00070BD4FF0000080F31188BFF36F8FBFF32D
:1029D0004F8F00BFFEE700BF546D72205376630037
:1029E000F1EE100A4FF6FF71C0F2C03120EA01008B
:1029F00040F04070E1EE100A704741542B4D5154A5
:102A0000545055423D302C312C226C697879746FCA
:102A1000706963222C226C65645F6D6F64203D20B9
:102A200025642C2074696D65725F6D6F6465203D4F
:102A30002025642C20616C61726D203D2025642C62
:102A400020636F756E746572203D202564220D0A27
:102A50000041542B4D515454434F4E4E504152411E
:102A60004D3D222573222C222573222C22257322F0
:102A70000D0A0041542B4D5154545055423D25648C
:102A80002C25642C222573222C222573220D0A006A
:102A900041542B4D515454434F4E4E3D22257322E9
:102AA0002C25642C25640D0A004F4B000400000007
:102AB000D02A000800000020100000009401000847
:102AC000E02A00081000002040BF0000B401000808
:102AD000000E27070F00000001010000AAAAAAAA01
:040000050800020DE0
:00000001FF
